:020000040000FA
:060000000A128A110C280F
:10000800FE00030EF3000A08F4000A128A114128C0
:100018000A128A110F2883010A128A1113288316DB
:1000280003130710871006148312031387018B1715
:100038000B168312031307141530F7004B30F60024
:10004800BE30F500F50B2628F60B2628F70B2628D8
:1000580000008312031307101530F7004B30F60029
:10006800BE30F500F50B3628F60B3628F70B362888
:1000780000001D280A128A110C288B1C44284528C8
:1000880059288312031387140630F2001330F10045
:10009800AD30F000F00B4E28F10B4E28F20B4E2835
:1000A80055288312031387108B1074088A00730E67
:0800B8008300FE0E7E0E09001C
:02400E003A3F37
:00000001FF
