:020000040000FA
:060000000A128A11FC2F18
:100B80000A128A11D2250A128A11FF007F08F90081
:100B900079080A128A1109260A128A11C02D0A122E
:100BA0008A1100286E30FF007F08F300DF2D0A1243
:100BB0008A1168260A128A11FF007F08F3006E303E
:100BC00073060319E42DE52DD72D73080800F000F6
:100BD000701CEB2DEC2DF02D831203130816F32D52
:100BE000831203130812F01CF62DF72DF92D881629
:100BF000FA2D8812701DFD2DFE2D002E0817012ED6
:100C00000813F01D042E052E072E8817082E8813B2
:100C10000800F80078080F39FF007F08F200780814
:100C2000F039FF007F08F3008312031308157308DF
:100C3000F10004300310F10CFF3E031D1A2E710861
:100C40000A128A11E7250A128A11831203138815E2
:100C50003330F4008230F5000000FF30F407031851
:100C6000F50AFF30F5077508803AFF0080307F02F3
:100C7000031D3C2E01307402031C3F2E402E2C2EEF
:100C800083120313881172080A128A11E7250A12C7
:100C90008A118312031388153330F6008230F7006F
:100CA0000000FF30F6070318F70AFF30F707770850
:100CB000803AFF0080307F02031D602E01307602F3
:100CC000031C632E642E502E831203138811080018
:100CD000831203130610861406158615061A712E44
:100CE000722E862E6630F2007630F100C130F000B0
:100CF000F00B782EF10B782EF20B782E8312031363
:100D0000061E832E842E7E2E3130FB2F861A892ECE
:100D10008A2E9E2E6630F2007630F100C130F0004F
:100D2000F00B902EF10B902EF20B902E83120313EA
:100D3000861E9B2E9C2E962E3230FB2F061BA12E3C
:100D4000A22EB62E6630F2007630F100C130F000EF
:100D5000F00BA82EF10BA82EF20BA82E8312031372
:100D6000061FB32EB42EAE2E3330FB2F861BB92EAA
:100D7000BA2ECE2E6630F2007630F100C130F0008F
:100D8000F00BC02EF10BC02EF20BC02E83120313FA
:100D9000861FCB2ECC2EC62E4130FB2F061486107C
:100DA00006158615061AD52ED62EEA2E6630F200C6
:100DB0007630F100C130F000F00BDC2EF10BDC2EB0
:100DC000F20BDC2E83120313061EE72EE82EE22E12
:100DD0003430FB2F861AED2EEE2E022F6630F200F5
:100DE0007630F100C130F000F00BF42EF10BF42E50
:100DF000F20BF42E83120313861EFF2E002FFA2E01
:100E00003530FB2F061B052F062F1A2F6630F200F8
:100E10007630F100C130F000F00B0C2FF10B0C2FED
:100E2000F20B0C2F83120313061F172F182F122FEC
:100E30003630FB2F861B1D2F1E2F322F6630F200FF
:100E40007630F100C130F000F00B242FF10B242F8D
:100E5000F20B242F83120313861F2F2F302F2A2FDC
:100E60004230FB2F0614861406118615061A392FF8
:100E70003A2F4E2F6630F2007630F100C130F0008C
:100E8000F00B402FF10B402FF20B402F8312031376
:100E9000061E4B2F4C2F462F3730FB2F861A512F13
:100EA000522F662F6630F2007630F100C130F0002C
:100EB000F00B582FF10B582FF20B582F83120313FE
:100EC000861E632F642F5E2F3830FB2F061B692F81
:100ED0006A2F7E2F6630F2007630F100C130F000CC
:100EE000F00B702FF10B702FF20B702F8312031386
:100EF000061F7B2F7C2F762F3930FB2F861B812FEF
:100F0000822F962F6630F2007630F100C130F0006B
:100F1000F00B882FF10B882FF20B882F831203130D
:100F2000861F932F942F8E2F4330FB2F0614861489
:100F300006158611061A9D2F9E2FB22F6630F200DD
:100F40007630F100C130F000F00BA42FF10BA42F8C
:100F5000F20BA42F83120313061EAF2FB02FAA2F5C
:100F60002A30FB2F861AB52FB62FCA2F6630F20013
:100F70007630F100C130F000F00BBC2FF10BBC2F2C
:100F8000F20BBC2F83120313861EC72FC82FC22F4C
:100F90003030FB2F061BCD2FCE2FE22F6630F20014
:100FA0007630F100C130F000F00BD42FF10BD42FCC
:100FB000F20BD42F83120313061FDF2FE02FDA2F3B
:100FC0002330FB2F861BE52FE62FFA2F6630F20029
:100FD0007630F100C130F000F00BEC2FF10BEC2F6C
:100FE000F20BEC2F83120313861FF72FF82FF22F2B
:100FF0004430FB2F6E30080083010A128A11C02D85
:02400E003A3F37
:00000001FF
